{
  "_format": "hh-sol-artifact-1",
  "contractName": "TntswapRouter",
  "sourceName": "contracts/TntswapRouter.sol",
  "abi": [
    {
      "inputs": [
        {
          "internalType": "address",
          "name": "_factory",
          "type": "address"
        },
        {
          "internalType": "address",
          "name": "_WETH",
          "type": "address"
        }
      ],
      "stateMutability": "nonpayable",
      "type": "constructor"
    },
    {
      "inputs": [],
      "name": "WETH",
      "outputs": [
        {
          "internalType": "address",
          "name": "",
          "type": "address"
        }
      ],
      "stateMutability": "view",
      "type": "function"
    },
    {
      "inputs": [
        {
          "internalType": "address",
          "name": "tokenA",
          "type": "address"
        },
        {
          "internalType": "address",
          "name": "tokenB",
          "type": "address"
        },
        {
          "internalType": "uint256",
          "name": "amountADesired",
          "type": "uint256"
        },
        {
          "internalType": "uint256",
          "name": "amountBDesired",
          "type": "uint256"
        },
        {
          "internalType": "uint256",
          "name": "amountAMin",
          "type": "uint256"
        },
        {
          "internalType": "uint256",
          "name": "amountBMin",
          "type": "uint256"
        },
        {
          "internalType": "address",
          "name": "to",
          "type": "address"
        },
        {
          "internalType": "uint256",
          "name": "deadline",
          "type": "uint256"
        }
      ],
      "name": "addLiquidity",
      "outputs": [
        {
          "internalType": "uint256",
          "name": "amountA",
          "type": "uint256"
        },
        {
          "internalType": "uint256",
          "name": "amountB",
          "type": "uint256"
        },
        {
          "internalType": "uint256",
          "name": "liquidity",
          "type": "uint256"
        }
      ],
      "stateMutability": "nonpayable",
      "type": "function"
    },
    {
      "inputs": [
        {
          "internalType": "address",
          "name": "token",
          "type": "address"
        },
        {
          "internalType": "uint256",
          "name": "amountTokenDesired",
          "type": "uint256"
        },
        {
          "internalType": "uint256",
          "name": "amountTokenMin",
          "type": "uint256"
        },
        {
          "internalType": "uint256",
          "name": "amountETHMin",
          "type": "uint256"
        },
        {
          "internalType": "address",
          "name": "to",
          "type": "address"
        },
        {
          "internalType": "uint256",
          "name": "deadline",
          "type": "uint256"
        }
      ],
      "name": "addLiquidityETH",
      "outputs": [
        {
          "internalType": "uint256",
          "name": "amountToken",
          "type": "uint256"
        },
        {
          "internalType": "uint256",
          "name": "amountETH",
          "type": "uint256"
        },
        {
          "internalType": "uint256",
          "name": "liquidity",
          "type": "uint256"
        }
      ],
      "stateMutability": "payable",
      "type": "function"
    },
    {
      "inputs": [],
      "name": "factory",
      "outputs": [
        {
          "internalType": "address",
          "name": "",
          "type": "address"
        }
      ],
      "stateMutability": "view",
      "type": "function"
    },
    {
      "inputs": [
        {
          "internalType": "uint256",
          "name": "amountOut",
          "type": "uint256"
        },
        {
          "internalType": "uint256",
          "name": "reserveIn",
          "type": "uint256"
        },
        {
          "internalType": "uint256",
          "name": "reserveOut",
          "type": "uint256"
        }
      ],
      "name": "getAmountIn",
      "outputs": [
        {
          "internalType": "uint256",
          "name": "amountIn",
          "type": "uint256"
        }
      ],
      "stateMutability": "pure",
      "type": "function"
    },
    {
      "inputs": [
        {
          "internalType": "uint256",
          "name": "amountIn",
          "type": "uint256"
        },
        {
          "internalType": "uint256",
          "name": "reserveIn",
          "type": "uint256"
        },
        {
          "internalType": "uint256",
          "name": "reserveOut",
          "type": "uint256"
        }
      ],
      "name": "getAmountOut",
      "outputs": [
        {
          "internalType": "uint256",
          "name": "amountOut",
          "type": "uint256"
        }
      ],
      "stateMutability": "pure",
      "type": "function"
    },
    {
      "inputs": [
        {
          "internalType": "uint256",
          "name": "amountOut",
          "type": "uint256"
        },
        {
          "internalType": "address[]",
          "name": "path",
          "type": "address[]"
        }
      ],
      "name": "getAmountsIn",
      "outputs": [
        {
          "internalType": "uint256[]",
          "name": "amounts",
          "type": "uint256[]"
        }
      ],
      "stateMutability": "view",
      "type": "function"
    },
    {
      "inputs": [
        {
          "internalType": "uint256",
          "name": "amountIn",
          "type": "uint256"
        },
        {
          "internalType": "address[]",
          "name": "path",
          "type": "address[]"
        }
      ],
      "name": "getAmountsOut",
      "outputs": [
        {
          "internalType": "uint256[]",
          "name": "amounts",
          "type": "uint256[]"
        }
      ],
      "stateMutability": "view",
      "type": "function"
    },
    {
      "inputs": [
        {
          "internalType": "address",
          "name": "account",
          "type": "address"
        }
      ],
      "name": "isOwner",
      "outputs": [
        {
          "internalType": "bool",
          "name": "",
          "type": "bool"
        }
      ],
      "stateMutability": "view",
      "type": "function"
    },
    {
      "inputs": [
        {
          "internalType": "uint256",
          "name": "amountA",
          "type": "uint256"
        },
        {
          "internalType": "uint256",
          "name": "reserveA",
          "type": "uint256"
        },
        {
          "internalType": "uint256",
          "name": "reserveB",
          "type": "uint256"
        }
      ],
      "name": "quote",
      "outputs": [
        {
          "internalType": "uint256",
          "name": "amountB",
          "type": "uint256"
        }
      ],
      "stateMutability": "pure",
      "type": "function"
    },
    {
      "inputs": [
        {
          "internalType": "address",
          "name": "tokenA",
          "type": "address"
        },
        {
          "internalType": "address",
          "name": "tokenB",
          "type": "address"
        },
        {
          "internalType": "uint256",
          "name": "liquidity",
          "type": "uint256"
        },
        {
          "internalType": "uint256",
          "name": "amountAMin",
          "type": "uint256"
        },
        {
          "internalType": "uint256",
          "name": "amountBMin",
          "type": "uint256"
        },
        {
          "internalType": "address",
          "name": "to",
          "type": "address"
        },
        {
          "internalType": "uint256",
          "name": "deadline",
          "type": "uint256"
        }
      ],
      "name": "removeLiquidity",
      "outputs": [
        {
          "internalType": "uint256",
          "name": "amountA",
          "type": "uint256"
        },
        {
          "internalType": "uint256",
          "name": "amountB",
          "type": "uint256"
        }
      ],
      "stateMutability": "nonpayable",
      "type": "function"
    },
    {
      "inputs": [
        {
          "internalType": "address",
          "name": "token",
          "type": "address"
        },
        {
          "internalType": "uint256",
          "name": "liquidity",
          "type": "uint256"
        },
        {
          "internalType": "uint256",
          "name": "amountTokenMin",
          "type": "uint256"
        },
        {
          "internalType": "uint256",
          "name": "amountETHMin",
          "type": "uint256"
        },
        {
          "internalType": "address",
          "name": "to",
          "type": "address"
        },
        {
          "internalType": "uint256",
          "name": "deadline",
          "type": "uint256"
        }
      ],
      "name": "removeLiquidityETH",
      "outputs": [
        {
          "internalType": "uint256",
          "name": "amountToken",
          "type": "uint256"
        },
        {
          "internalType": "uint256",
          "name": "amountETH",
          "type": "uint256"
        }
      ],
      "stateMutability": "nonpayable",
      "type": "function"
    },
    {
      "inputs": [
        {
          "internalType": "address",
          "name": "token",
          "type": "address"
        },
        {
          "internalType": "uint256",
          "name": "liquidity",
          "type": "uint256"
        },
        {
          "internalType": "uint256",
          "name": "amountTokenMin",
          "type": "uint256"
        },
        {
          "internalType": "uint256",
          "name": "amountETHMin",
          "type": "uint256"
        },
        {
          "internalType": "address",
          "name": "to",
          "type": "address"
        },
        {
          "internalType": "uint256",
          "name": "deadline",
          "type": "uint256"
        }
      ],
      "name": "removeLiquidityETHSupportingFeeOnTransferTokens",
      "outputs": [
        {
          "internalType": "uint256",
          "name": "amountETH",
          "type": "uint256"
        }
      ],
      "stateMutability": "nonpayable",
      "type": "function"
    },
    {
      "inputs": [
        {
          "internalType": "address",
          "name": "token",
          "type": "address"
        },
        {
          "internalType": "uint256",
          "name": "liquidity",
          "type": "uint256"
        },
        {
          "internalType": "uint256",
          "name": "amountTokenMin",
          "type": "uint256"
        },
        {
          "internalType": "uint256",
          "name": "amountETHMin",
          "type": "uint256"
        },
        {
          "internalType": "address",
          "name": "to",
          "type": "address"
        },
        {
          "internalType": "uint256",
          "name": "deadline",
          "type": "uint256"
        },
        {
          "internalType": "bool",
          "name": "approveMax",
          "type": "bool"
        },
        {
          "internalType": "uint8",
          "name": "v",
          "type": "uint8"
        },
        {
          "internalType": "bytes32",
          "name": "r",
          "type": "bytes32"
        },
        {
          "internalType": "bytes32",
          "name": "s",
          "type": "bytes32"
        }
      ],
      "name": "removeLiquidityETHWithPermit",
      "outputs": [
        {
          "internalType": "uint256",
          "name": "amountToken",
          "type": "uint256"
        },
        {
          "internalType": "uint256",
          "name": "amountETH",
          "type": "uint256"
        }
      ],
      "stateMutability": "nonpayable",
      "type": "function"
    },
    {
      "inputs": [
        {
          "internalType": "address",
          "name": "token",
          "type": "address"
        },
        {
          "internalType": "uint256",
          "name": "liquidity",
          "type": "uint256"
        },
        {
          "internalType": "uint256",
          "name": "amountTokenMin",
          "type": "uint256"
        },
        {
          "internalType": "uint256",
          "name": "amountETHMin",
          "type": "uint256"
        },
        {
          "internalType": "address",
          "name": "to",
          "type": "address"
        },
        {
          "internalType": "uint256",
          "name": "deadline",
          "type": "uint256"
        },
        {
          "internalType": "bool",
          "name": "approveMax",
          "type": "bool"
        },
        {
          "internalType": "uint8",
          "name": "v",
          "type": "uint8"
        },
        {
          "internalType": "bytes32",
          "name": "r",
          "type": "bytes32"
        },
        {
          "internalType": "bytes32",
          "name": "s",
          "type": "bytes32"
        }
      ],
      "name": "removeLiquidityETHWithPermitSupportingFeeOnTransferTokens",
      "outputs": [
        {
          "internalType": "uint256",
          "name": "amountETH",
          "type": "uint256"
        }
      ],
      "stateMutability": "nonpayable",
      "type": "function"
    },
    {
      "inputs": [
        {
          "internalType": "address",
          "name": "tokenA",
          "type": "address"
        },
        {
          "internalType": "address",
          "name": "tokenB",
          "type": "address"
        },
        {
          "internalType": "uint256",
          "name": "liquidity",
          "type": "uint256"
        },
        {
          "internalType": "uint256",
          "name": "amountAMin",
          "type": "uint256"
        },
        {
          "internalType": "uint256",
          "name": "amountBMin",
          "type": "uint256"
        },
        {
          "internalType": "address",
          "name": "to",
          "type": "address"
        },
        {
          "internalType": "uint256",
          "name": "deadline",
          "type": "uint256"
        },
        {
          "internalType": "bool",
          "name": "approveMax",
          "type": "bool"
        },
        {
          "internalType": "uint8",
          "name": "v",
          "type": "uint8"
        },
        {
          "internalType": "bytes32",
          "name": "r",
          "type": "bytes32"
        },
        {
          "internalType": "bytes32",
          "name": "s",
          "type": "bytes32"
        }
      ],
      "name": "removeLiquidityWithPermit",
      "outputs": [
        {
          "internalType": "uint256",
          "name": "amountA",
          "type": "uint256"
        },
        {
          "internalType": "uint256",
          "name": "amountB",
          "type": "uint256"
        }
      ],
      "stateMutability": "nonpayable",
      "type": "function"
    },
    {
      "inputs": [
        {
          "internalType": "address",
          "name": "_swapMininng",
          "type": "address"
        }
      ],
      "name": "setSwapMining",
      "outputs": [],
      "stateMutability": "nonpayable",
      "type": "function"
    },
    {
      "inputs": [
        {
          "internalType": "uint256",
          "name": "amountOut",
          "type": "uint256"
        },
        {
          "internalType": "address[]",
          "name": "path",
          "type": "address[]"
        },
        {
          "internalType": "address",
          "name": "to",
          "type": "address"
        },
        {
          "internalType": "uint256",
          "name": "deadline",
          "type": "uint256"
        }
      ],
      "name": "swapETHForExactTokens",
      "outputs": [
        {
          "internalType": "uint256[]",
          "name": "amounts",
          "type": "uint256[]"
        }
      ],
      "stateMutability": "payable",
      "type": "function"
    },
    {
      "inputs": [
        {
          "internalType": "uint256",
          "name": "amountOutMin",
          "type": "uint256"
        },
        {
          "internalType": "address[]",
          "name": "path",
          "type": "address[]"
        },
        {
          "internalType": "address",
          "name": "to",
          "type": "address"
        },
        {
          "internalType": "uint256",
          "name": "deadline",
          "type": "uint256"
        }
      ],
      "name": "swapExactETHForTokens",
      "outputs": [
        {
          "internalType": "uint256[]",
          "name": "amounts",
          "type": "uint256[]"
        }
      ],
      "stateMutability": "payable",
      "type": "function"
    },
    {
      "inputs": [
        {
          "internalType": "uint256",
          "name": "amountOutMin",
          "type": "uint256"
        },
        {
          "internalType": "address[]",
          "name": "path",
          "type": "address[]"
        },
        {
          "internalType": "address",
          "name": "to",
          "type": "address"
        },
        {
          "internalType": "uint256",
          "name": "deadline",
          "type": "uint256"
        }
      ],
      "name": "swapExactETHForTokensSupportingFeeOnTransferTokens",
      "outputs": [],
      "stateMutability": "payable",
      "type": "function"
    },
    {
      "inputs": [
        {
          "internalType": "uint256",
          "name": "amountIn",
          "type": "uint256"
        },
        {
          "internalType": "uint256",
          "name": "amountOutMin",
          "type": "uint256"
        },
        {
          "internalType": "address[]",
          "name": "path",
          "type": "address[]"
        },
        {
          "internalType": "address",
          "name": "to",
          "type": "address"
        },
        {
          "internalType": "uint256",
          "name": "deadline",
          "type": "uint256"
        }
      ],
      "name": "swapExactTokensForETH",
      "outputs": [
        {
          "internalType": "uint256[]",
          "name": "amounts",
          "type": "uint256[]"
        }
      ],
      "stateMutability": "nonpayable",
      "type": "function"
    },
    {
      "inputs": [
        {
          "internalType": "uint256",
          "name": "amountIn",
          "type": "uint256"
        },
        {
          "internalType": "uint256",
          "name": "amountOutMin",
          "type": "uint256"
        },
        {
          "internalType": "address[]",
          "name": "path",
          "type": "address[]"
        },
        {
          "internalType": "address",
          "name": "to",
          "type": "address"
        },
        {
          "internalType": "uint256",
          "name": "deadline",
          "type": "uint256"
        }
      ],
      "name": "swapExactTokensForETHSupportingFeeOnTransferTokens",
      "outputs": [],
      "stateMutability": "nonpayable",
      "type": "function"
    },
    {
      "inputs": [
        {
          "internalType": "uint256",
          "name": "amountIn",
          "type": "uint256"
        },
        {
          "internalType": "uint256",
          "name": "amountOutMin",
          "type": "uint256"
        },
        {
          "internalType": "address[]",
          "name": "path",
          "type": "address[]"
        },
        {
          "internalType": "address",
          "name": "to",
          "type": "address"
        },
        {
          "internalType": "uint256",
          "name": "deadline",
          "type": "uint256"
        }
      ],
      "name": "swapExactTokensForTokens",
      "outputs": [
        {
          "internalType": "uint256[]",
          "name": "amounts",
          "type": "uint256[]"
        }
      ],
      "stateMutability": "nonpayable",
      "type": "function"
    },
    {
      "inputs": [
        {
          "internalType": "uint256",
          "name": "amountIn",
          "type": "uint256"
        },
        {
          "internalType": "uint256",
          "name": "amountOutMin",
          "type": "uint256"
        },
        {
          "internalType": "address[]",
          "name": "path",
          "type": "address[]"
        },
        {
          "internalType": "address",
          "name": "to",
          "type": "address"
        },
        {
          "internalType": "uint256",
          "name": "deadline",
          "type": "uint256"
        }
      ],
      "name": "swapExactTokensForTokensSupportingFeeOnTransferTokens",
      "outputs": [],
      "stateMutability": "nonpayable",
      "type": "function"
    },
    {
      "inputs": [],
      "name": "swapMining",
      "outputs": [
        {
          "internalType": "address",
          "name": "",
          "type": "address"
        }
      ],
      "stateMutability": "view",
      "type": "function"
    },
    {
      "inputs": [
        {
          "internalType": "uint256",
          "name": "amountOut",
          "type": "uint256"
        },
        {
          "internalType": "uint256",
          "name": "amountInMax",
          "type": "uint256"
        },
        {
          "internalType": "address[]",
          "name": "path",
          "type": "address[]"
        },
        {
          "internalType": "address",
          "name": "to",
          "type": "address"
        },
        {
          "internalType": "uint256",
          "name": "deadline",
          "type": "uint256"
        }
      ],
      "name": "swapTokensForExactETH",
      "outputs": [
        {
          "internalType": "uint256[]",
          "name": "amounts",
          "type": "uint256[]"
        }
      ],
      "stateMutability": "nonpayable",
      "type": "function"
    },
    {
      "inputs": [
        {
          "internalType": "uint256",
          "name": "amountOut",
          "type": "uint256"
        },
        {
          "internalType": "uint256",
          "name": "amountInMax",
          "type": "uint256"
        },
        {
          "internalType": "address[]",
          "name": "path",
          "type": "address[]"
        },
        {
          "internalType": "address",
          "name": "to",
          "type": "address"
        },
        {
          "internalType": "uint256",
          "name": "deadline",
          "type": "uint256"
        }
      ],
      "name": "swapTokensForExactTokens",
      "outputs": [
        {
          "internalType": "uint256[]",
          "name": "amounts",
          "type": "uint256[]"
        }
      ],
      "stateMutability": "nonpayable",
      "type": "function"
    },
    {
      "stateMutability": "payable",
      "type": "receive"
    }
  ],
  "bytecode": "0x60c06040523480156200001157600080fd5b5060405162006f8038038062006f80833981810160405260408110156200003757600080fd5b81019080805190602001909291908051906020019092919050505033600160006101000a81548173ffffffffffffffffffffffffffffffffffffffff021916908373ffffffffffffffffffffffffffffffffffffffff1602179055508173ffffffffffffffffffffffffffffffffffffffff1660808173ffffffffffffffffffffffffffffffffffffffff1660601b815250508073ffffffffffffffffffffffffffffffffffffffff1660a08173ffffffffffffffffffffffffffffffffffffffff1660601b81525050505060805160601c60a05160601c616d366200024a600039806101a752806116d6528061171452806118445280611b2252806120f052806123cb52806125a45280612b445280612d315280612e645280612f7c528061314452806131d9528061362d52806136e452806137d752806138ee52806139dd5280613a5e528061425552806145f3528061464c5280614680528061470152806149415280614b065280614b9b5250806119365280611a425280611bf55280611c2d5280611e805280611f8c52806121e252806122eb528061258252806127be5280612c6452806130695280613218528061343952806135425280613a9d5280613ed052806141d252806141fb52806142335280614465528061462a5280614a2e5280614bda528061597b52806159bf5280615d345280615f9b528061658c52806166b452806167ca5250616d366000f3fe6080604052600436106101a05760003560e01c80637ff36ab5116100ec578063baa2abde1161008a578063ded9382a11610064578063ded9382a146112de578063e8e33700146113c0578063f305d719146114a6578063fb3bdb4114611554576101fc565b8063baa2abde1461108f578063c45a015514611163578063d06ca61f146111ba576101fc565b8063ad5c4648116100c6578063ad5c464814610e7b578063ad615dec14610ed2578063af2979eb14610f35578063b6f9de9514610fe2576101fc565b80637ff36ab514610bfd57806385f8c25914610cff5780638803dbee14610d62576101fc565b806338ed1739116101595780634f887183116101335780634f887183146109495780635b0d59841461099a5780635c11d79514610a75578063791ac94714610b39576101fc565b806338ed1739146106c05780634a25d94a146107d95780634e5eda11146108f2576101fc565b806302751cec14610201578063054d50d4146102b557806318cbafe5146103185780631f00ca74146104315780632195995c146105555780632f54bf6e14610657576101fc565b366101fc577f000000000000000000000000000000000000000000000000000000000000000073ffffffffffffffffffffffffffffffffffffffff163373ffffffffffffffffffffffffffffffffffffffff16146101fa57fe5b005b600080fd5b34801561020d57600080fd5b50610298600480360360c081101561022457600080fd5b81019080803573ffffffffffffffffffffffffffffffffffffffff169060200190929190803590602001909291908035906020019092919080359060200190929190803573ffffffffffffffffffffffffffffffffffffffff16906020019092919080359060200190929190505050611656565b604051808381526020018281526020019250505060405180910390f35b3480156102c157600080fd5b50610302600480360360608110156102d857600080fd5b810190808035906020019092919080359060200190929190803590602001909291905050506117b3565b6040518082815260200191505060405180910390f35b34801561032457600080fd5b506103da600480360360a081101561033b57600080fd5b8101908080359060200190929190803590602001909291908035906020019064010000000081111561036c57600080fd5b82018360208201111561037e57600080fd5b803590602001918460208302840111640100000000831117156103a057600080fd5b9091929391929390803573ffffffffffffffffffffffffffffffffffffffff169060200190929190803590602001909291905050506117c9565b6040518080602001828103825283818151815260200191508051906020019060200280838360005b8381101561041d578082015181840152602081019050610402565b505050509050019250505060405180910390f35b34801561043d57600080fd5b506104fe6004803603604081101561045457600080fd5b81019080803590602001909291908035906020019064010000000081111561047b57600080fd5b82018360208201111561048d57600080fd5b803590602001918460208302840111640100000000831117156104af57600080fd5b919080806020026020016040519081016040528093929190818152602001838360200280828437600081840152601f19601f820116905080830192505050505050509192919290505050611bee565b6040518080602001828103825283818151815260200191508051906020019060200280838360005b83811015610541578082015181840152602081019050610526565b505050509050019250505060405180910390f35b34801561056157600080fd5b5061063a600480360361016081101561057957600080fd5b81019080803573ffffffffffffffffffffffffffffffffffffffff169060200190929190803573ffffffffffffffffffffffffffffffffffffffff169060200190929190803590602001909291908035906020019092919080359060200190929190803573ffffffffffffffffffffffffffffffffffffffff16906020019092919080359060200190929190803515159060200190929190803560ff1690602001909291908035906020019092919080359060200190929190505050611c23565b604051808381526020018281526020019250505060405180910390f35b34801561066357600080fd5b506106a66004803603602081101561067a57600080fd5b81019080803573ffffffffffffffffffffffffffffffffffffffff169060200190929190505050611da8565b604051808215151515815260200191505060405180910390f35b3480156106cc57600080fd5b50610782600480360360a08110156106e357600080fd5b8101908080359060200190929190803590602001909291908035906020019064010000000081111561071457600080fd5b82018360208201111561072657600080fd5b8035906020019184602083028401116401000000008311171561074857600080fd5b9091929391929390803573ffffffffffffffffffffffffffffffffffffffff16906020019092919080359060200190929190505050611e02565b6040518080602001828103825283818151815260200191508051906020019060200280838360005b838110156107c55780820151818401526020810190506107aa565b505050509050019250505060405180910390f35b3480156107e557600080fd5b5061089b600480360360a08110156107fc57600080fd5b8101908080359060200190929190803590602001909291908035906020019064010000000081111561082d57600080fd5b82018360208201111561083f57600080fd5b8035906020019184602083028401116401000000008311171561086157600080fd5b9091929391929390803573ffffffffffffffffffffffffffffffffffffffff16906020019092919080359060200190929190505050612075565b6040518080602001828103825283818151815260200191508051906020019060200280838360005b838110156108de5780820151818401526020810190506108c3565b505050509050019250505060405180910390f35b3480156108fe57600080fd5b50610907612497565b604051808273ffffffffffffffffffffffffffffffffffffffff1673ffffffffffffffffffffffffffffffffffffffff16815260200191505060405180910390f35b34801561095557600080fd5b506109986004803603602081101561096c57600080fd5b81019080803573ffffffffffffffffffffffffffffffffffffffff1690602001909291905050506124bc565b005b3480156109a657600080fd5b50610a5f60048036036101408110156109be57600080fd5b81019080803573ffffffffffffffffffffffffffffffffffffffff169060200190929190803590602001909291908035906020019092919080359060200190929190803573ffffffffffffffffffffffffffffffffffffffff16906020019092919080359060200190929190803515159060200190929190803560ff169060200190929190803590602001909291908035906020019092919050505061257a565b6040518082815260200191505060405180910390f35b348015610a8157600080fd5b50610b37600480360360a0811015610a9857600080fd5b81019080803590602001909291908035906020019092919080359060200190640100000000811115610ac957600080fd5b820183602082011115610adb57600080fd5b80359060200191846020830284011164010000000083111715610afd57600080fd5b9091929391929390803573ffffffffffffffffffffffffffffffffffffffff16906020019092919080359060200190929190505050612714565b005b348015610b4557600080fd5b50610bfb600480360360a0811015610b5c57600080fd5b81019080803590602001909291908035906020019092919080359060200190640100000000811115610b8d57600080fd5b820183602082011115610b9f57600080fd5b80359060200191846020830284011164010000000083111715610bc157600080fd5b9091929391929390803573ffffffffffffffffffffffffffffffffffffffff16906020019092919080359060200190929190505050612acb565b005b610ca860048036036080811015610c1357600080fd5b810190808035906020019092919080359060200190640100000000811115610c3a57600080fd5b820183602082011115610c4c57600080fd5b80359060200191846020830284011164010000000083111715610c6e57600080fd5b9091929391929390803573ffffffffffffffffffffffffffffffffffffffff16906020019092919080359060200190929190505050612f01565b6040518080602001828103825283818151815260200191508051906020019060200280838360005b83811015610ceb578082015181840152602081019050610cd0565b505050509050019250505060405180910390f35b348015610d0b57600080fd5b50610d4c60048036036060811015610d2257600080fd5b810190808035906020019092919080359060200190929190803590602001909291905050506133a5565b6040518082815260200191505060405180910390f35b348015610d6e57600080fd5b50610e24600480360360a0811015610d8557600080fd5b81019080803590602001909291908035906020019092919080359060200190640100000000811115610db657600080fd5b820183602082011115610dc857600080fd5b80359060200191846020830284011164010000000083111715610dea57600080fd5b9091929391929390803573ffffffffffffffffffffffffffffffffffffffff169060200190929190803590602001909291905050506133bb565b6040518080602001828103825283818151815260200191508051906020019060200280838360005b83811015610e67578082015181840152602081019050610e4c565b505050509050019250505060405180910390f35b348015610e8757600080fd5b50610e9061362b565b604051808273ffffffffffffffffffffffffffffffffffffffff1673ffffffffffffffffffffffffffffffffffffffff16815260200191505060405180910390f35b348015610ede57600080fd5b50610f1f60048036036060811015610ef557600080fd5b8101908080359060200190929190803590602001909291908035906020019092919050505061364f565b6040518082815260200191505060405180910390f35b348015610f4157600080fd5b50610fcc600480360360c0811015610f5857600080fd5b81019080803573ffffffffffffffffffffffffffffffffffffffff169060200190929190803590602001909291908035906020019092919080359060200190929190803573ffffffffffffffffffffffffffffffffffffffff16906020019092919080359060200190929190505050613665565b6040518082815260200191505060405180910390f35b61108d60048036036080811015610ff857600080fd5b81019080803590602001909291908035906020019064010000000081111561101f57600080fd5b82018360208201111561103157600080fd5b8035906020019184602083028401116401000000008311171561105357600080fd5b9091929391929390803573ffffffffffffffffffffffffffffffffffffffff16906020019092919080359060200190929190505050613875565b005b34801561109b57600080fd5b50611146600480360360e08110156110b257600080fd5b81019080803573ffffffffffffffffffffffffffffffffffffffff169060200190929190803573ffffffffffffffffffffffffffffffffffffffff169060200190929190803590602001909291908035906020019092919080359060200190929190803573ffffffffffffffffffffffffffffffffffffffff16906020019092919080359060200190929190505050613e4f565b604051808381526020018281526020019250505060405180910390f35b34801561116f57600080fd5b506111786141d0565b604051808273ffffffffffffffffffffffffffffffffffffffff1673ffffffffffffffffffffffffffffffffffffffff16815260200191505060405180910390f35b3480156111c657600080fd5b50611287600480360360408110156111dd57600080fd5b81019080803590602001909291908035906020019064010000000081111561120457600080fd5b82018360208201111561121657600080fd5b8035906020019184602083028401116401000000008311171561123857600080fd5b919080806020026020016040519081016040528093929190818152602001838360200280828437600081840152601f19601f8201169050808301925050505050505091929192905050506141f4565b6040518080602001828103825283818151815260200191508051906020019060200280838360005b838110156112ca5780820151818401526020810190506112af565b505050509050019250505060405180910390f35b3480156112ea57600080fd5b506113a3600480360361014081101561130257600080fd5b81019080803573ffffffffffffffffffffffffffffffffffffffff169060200190929190803590602001909291908035906020019092919080359060200190929190803573ffffffffffffffffffffffffffffffffffffffff16906020019092919080359060200190929190803515159060200190929190803560ff1690602001909291908035906020019092919080359060200190929190505050614229565b604051808381526020018281526020019250505060405180910390f35b3480156113cc57600080fd5b5061148260048036036101008110156113e457600080fd5b81019080803573ffffffffffffffffffffffffffffffffffffffff169060200190929190803573ffffffffffffffffffffffffffffffffffffffff16906020019092919080359060200190929190803590602001909291908035906020019092919080359060200190929190803573ffffffffffffffffffffffffffffffffffffffff169060200190929190803590602001909291905050506143cc565b60405180848152602001838152602001828152602001935050505060405180910390f35b611530600480360360c08110156114bc57600080fd5b81019080803573ffffffffffffffffffffffffffffffffffffffff169060200190929190803590602001909291908035906020019092919080359060200190929190803573ffffffffffffffffffffffffffffffffffffffff16906020019092919080359060200190929190505050614571565b60405180848152602001838152602001828152602001935050505060405180910390f35b6115ff6004803603608081101561156a57600080fd5b81019080803590602001909291908035906020019064010000000081111561159157600080fd5b8201836020820111156115a357600080fd5b803590602001918460208302840111640100000000831117156115c557600080fd5b9091929391929390803573ffffffffffffffffffffffffffffffffffffffff169060200190929190803590602001909291905050506148c6565b6040518080602001828103825283818151815260200191508051906020019060200280838360005b83811015611642578082015181840152602081019050611627565b505050509050019250505060405180910390f35b60008082428110156116d0576040517f08c379a00000000000000000000000000000000000000000000000000000000081526004018080602001828103825260168152602001807f546e7473776170526f757465723a20455850495245440000000000000000000081525060200191505060405180910390fd5b6116ff897f00000000000000000000000000000000000000000000000000000000000000008a8a8a308a613e4f565b8093508194505050611712898685614da4565b7f000000000000000000000000000000000000000000000000000000000000000073ffffffffffffffffffffffffffffffffffffffff16632e1a7d4d836040518263ffffffff1660e01b815260040180828152602001915050600060405180830381600087803b15801561178557600080fd5b505af1158015611799573d6000803e3d6000fd5b505050506117a78583614f9d565b50965096945050505050565b60006117c08484846150fc565b90509392505050565b60608142811015611842576040517f08c379a00000000000000000000000000000000000000000000000000000000081526004018080602001828103825260168152602001807f546e7473776170526f757465723a20455850495245440000000000000000000081525060200191505060405180910390fd5b7f000000000000000000000000000000000000000000000000000000000000000073ffffffffffffffffffffffffffffffffffffffff1686866001898990500381811061188b57fe5b9050602002013573ffffffffffffffffffffffffffffffffffffffff1673ffffffffffffffffffffffffffffffffffffffff1614611931576040517f08c379a000000000000000000000000000000000000000000000000000000000815260040180806020018281038252601b8152602001807f546e7473776170526f757465723a20494e56414c49445f50415448000000000081525060200191505060405180910390fd5b61199d7f000000000000000000000000000000000000000000000000000000000000000089888880806020026020016040519081016040528093929190818152602001838360200280828437600081840152601f19601f8201169050808301925050505050505061522c565b915086826001845103815181106119b057fe5b60200260200101511015611a0f576040517f08c379a0000000000000000000000000000000000000000000000000000000008152600401808060200182810382526029815260200180616c246029913960400191505060405180910390fd5b611ad486866000818110611a1f57fe5b9050602002013573ffffffffffffffffffffffffffffffffffffffff1633611aba7f00000000000000000000000000000000000000000000000000000000000000008a8a6000818110611a6e57fe5b9050602002013573ffffffffffffffffffffffffffffffffffffffff168b8b6001818110611a9857fe5b9050602002013573ffffffffffffffffffffffffffffffffffffffff166153a4565b85600081518110611ac757fe5b60200260200101516154ff565b611b2082878780806020026020016040519081016040528093929190818152602001838360200280828437600081840152601f19601f8201169050808301925050505050505030615710565b7f000000000000000000000000000000000000000000000000000000000000000073ffffffffffffffffffffffffffffffffffffffff16632e1a7d4d83600185510381518110611b6c57fe5b60200260200101516040518263ffffffff1660e01b815260040180828152602001915050600060405180830381600087803b158015611baa57600080fd5b505af1158015611bbe573d6000803e3d6000fd5b50505050611be38483600185510381518110611bd657fe5b6020026020010151614f9d565b509695505050505050565b6060611c1b7f00000000000000000000000000000000000000000000000000000000000000008484615b5d565b905092915050565b6000806000611c537f00000000000000000000000000000000000000000000000000000000000000008f8f6153a4565b9050600087611c62578c611c84565b7fffffffffffffffffffffffffffffffffffffffffffffffffffffffffffffffff5b90508173ffffffffffffffffffffffffffffffffffffffff1663d505accf3330848d8c8c8c6040518863ffffffff1660e01b8152600401808873ffffffffffffffffffffffffffffffffffffffff1673ffffffffffffffffffffffffffffffffffffffff1681526020018773ffffffffffffffffffffffffffffffffffffffff1673ffffffffffffffffffffffffffffffffffffffff1681526020018681526020018581526020018460ff1660ff168152602001838152602001828152602001975050505050505050600060405180830381600087803b158015611d6757600080fd5b505af1158015611d7b573d6000803e3d6000fd5b50505050611d8e8f8f8f8f8f8f8f613e4f565b809450819550505050509b509b9950505050505050505050565b6000600160009054906101000a900473ffffffffffffffffffffffffffffffffffffffff1673ffffffffffffffffffffffffffffffffffffffff168273ffffffffffffffffffffffffffffffffffffffff16149050919050565b60608142811015611e7b576040517f08c379a00000000000000000000000000000000000000000000000000000000081526004018080602001828103825260168152602001807f546e7473776170526f757465723a20455850495245440000000000000000000081525060200191505060405180910390fd5b611ee77f000000000000000000000000000000000000000000000000000000000000000089888880806020026020016040519081016040528093929190818152602001838360200280828437600081840152601f19601f8201169050808301925050505050505061522c565b91508682600184510381518110611efa57fe5b60200260200101511015611f59576040517f08c379a0000000000000000000000000000000000000000000000000000000008152600401808060200182810382526029815260200180616c246029913960400191505060405180910390fd5b61201e86866000818110611f6957fe5b9050602002013573ffffffffffffffffffffffffffffffffffffffff16336120047f00000000000000000000000000000000000000000000000000000000000000008a8a6000818110611fb857fe5b9050602002013573ffffffffffffffffffffffffffffffffffffffff168b8b6001818110611fe257fe5b9050602002013573ffffffffffffffffffffffffffffffffffffffff166153a4565b8560008151811061201157fe5b60200260200101516154ff565b61206a82878780806020026020016040519081016040528093929190818152602001838360200280828437600081840152601f19601f8201169050808301925050505050505086615710565b509695505050505050565b606081428110156120ee576040517f08c379a00000000000000000000000000000000000000000000000000000000081526004018080602001828103825260168152602001807f546e7473776170526f757465723a20455850495245440000000000000000000081525060200191505060405180910390fd5b7f000000000000000000000000000000000000000000000000000000000000000073ffffffffffffffffffffffffffffffffffffffff1686866001898990500381811061213757fe5b9050602002013573ffffffffffffffffffffffffffffffffffffffff1673ffffffffffffffffffffffffffffffffffffffff16146121dd576040517f08c379a000000000000000000000000000000000000000000000000000000000815260040180806020018281038252601b8152602001807f546e7473776170526f757465723a20494e56414c49445f50415448000000000081525060200191505060405180910390fd5b6122497f000000000000000000000000000000000000000000000000000000000000000089888880806020026020016040519081016040528093929190818152602001838360200280828437600081840152601f19601f82011690508083019250505050505050615b5d565b9150868260008151811061225957fe5b602002602001015111156122b8576040517f08c379a0000000000000000000000000000000000000000000000000000000008152600401808060200182810382526025815260200180616bd66025913960400191505060405180910390fd5b61237d868660008181106122c857fe5b9050602002013573ffffffffffffffffffffffffffffffffffffffff16336123637f00000000000000000000000000000000000000000000000000000000000000008a8a600081811061231757fe5b9050602002013573ffffffffffffffffffffffffffffffffffffffff168b8b600181811061234157fe5b9050602002013573ffffffffffffffffffffffffffffffffffffffff166153a4565b8560008151811061237057fe5b60200260200101516154ff565b6123c982878780806020026020016040519081016040528093929190818152602001838360200280828437600081840152601f19601f8201169050808301925050505050505030615710565b7f000000000000000000000000000000000000000000000000000000000000000073ffffffffffffffffffffffffffffffffffffffff16632e1a7d4d8360018551038151811061241557fe5b60200260200101516040518263ffffffff1660e01b815260040180828152602001915050600060405180830381600087803b15801561245357600080fd5b505af1158015612467573d6000803e3d6000fd5b5050505061248c848360018551038151811061247f57fe5b6020026020010151614f9d565b509695505050505050565b6000809054906101000a900473ffffffffffffffffffffffffffffffffffffffff1681565b6124c533611da8565b612537576040517f08c379a00000000000000000000000000000000000000000000000000000000081526004018080602001828103825260208152602001807f4f776e61626c653a2063616c6c6572206973206e6f7420746865206f776e657281525060200191505060405180910390fd5b806000806101000a81548173ffffffffffffffffffffffffffffffffffffffff021916908373ffffffffffffffffffffffffffffffffffffffff16021790555050565b6000806125c87f00000000000000000000000000000000000000000000000000000000000000008d7f00000000000000000000000000000000000000000000000000000000000000006153a4565b90506000866125d7578b6125f9565b7fffffffffffffffffffffffffffffffffffffffffffffffffffffffffffffffff5b90508173ffffffffffffffffffffffffffffffffffffffff1663d505accf3330848c8b8b8b6040518863ffffffff1660e01b8152600401808873ffffffffffffffffffffffffffffffffffffffff1673ffffffffffffffffffffffffffffffffffffffff1681526020018773ffffffffffffffffffffffffffffffffffffffff1673ffffffffffffffffffffffffffffffffffffffff1681526020018681526020018581526020018460ff1660ff168152602001838152602001828152602001975050505050505050600060405180830381600087803b1580156126dc57600080fd5b505af11580156126f0573d6000803e3d6000fd5b505050506127028d8d8d8d8d8d613665565b925050509a9950505050505050505050565b804281101561278b576040517f08c379a00000000000000000000000000000000000000000000000000000000081526004018080602001828103825260168152602001807f546e7473776170526f757465723a20455850495245440000000000000000000081525060200191505060405180910390fd5b61283c8585600081811061279b57fe5b9050602002013573ffffffffffffffffffffffffffffffffffffffff16336128367f0000000000000000000000000000000000000000000000000000000000000000898960008181106127ea57fe5b9050602002013573ffffffffffffffffffffffffffffffffffffffff168a8a600181811061281457fe5b9050602002013573ffffffffffffffffffffffffffffffffffffffff166153a4565b8a6154ff565b600085856001888890500381811061285057fe5b9050602002013573ffffffffffffffffffffffffffffffffffffffff1673ffffffffffffffffffffffffffffffffffffffff166370a08231856040518263ffffffff1660e01b8152600401808273ffffffffffffffffffffffffffffffffffffffff1673ffffffffffffffffffffffffffffffffffffffff16815260200191505060206040518083038186803b1580156128e957600080fd5b505afa1580156128fd573d6000803e3d6000fd5b505050506040513d602081101561291357600080fd5b81019080805190602001909291905050509050612971868680806020026020016040519081016040528093929190818152602001838360200280828437600081840152601f19601f8201169050808301925050505050505085615cdd565b86612a6a82888860018b8b90500381811061298857fe5b9050602002013573ffffffffffffffffffffffffffffffffffffffff1673ffffffffffffffffffffffffffffffffffffffff166370a08231886040518263ffffffff1660e01b8152600401808273ffffffffffffffffffffffffffffffffffffffff1673ffffffffffffffffffffffffffffffffffffffff16815260200191505060206040518083038186803b158015612a2157600080fd5b505afa158015612a35573d6000803e3d6000fd5b505050506040513d6020811015612a4b57600080fd5b810190808051906020019092919050505061615490919063ffffffff16565b1015612ac1576040517f08c379a0000000000000000000000000000000000000000000000000000000008152600401808060200182810382526029815260200180616c246029913960400191505060405180910390fd5b5050505050505050565b8042811015612b42576040517f08c379a00000000000000000000000000000000000000000000000000000000081526004018080602001828103825260168152602001807f546e7473776170526f757465723a20455850495245440000000000000000000081525060200191505060405180910390fd5b7f000000000000000000000000000000000000000000000000000000000000000073ffffffffffffffffffffffffffffffffffffffff16858560018888905003818110612b8b57fe5b9050602002013573ffffffffffffffffffffffffffffffffffffffff1673ffffffffffffffffffffffffffffffffffffffff1614612c31576040517f08c379a000000000000000000000000000000000000000000000000000000000815260040180806020018281038252601b8152602001807f546e7473776170526f757465723a20494e56414c49445f50415448000000000081525060200191505060405180910390fd5b612ce285856000818110612c4157fe5b9050602002013573ffffffffffffffffffffffffffffffffffffffff1633612cdc7f000000000000000000000000000000000000000000000000000000000000000089896000818110612c9057fe5b9050602002013573ffffffffffffffffffffffffffffffffffffffff168a8a6001818110612cba57fe5b9050602002013573ffffffffffffffffffffffffffffffffffffffff166153a4565b8a6154ff565b612d2d858580806020026020016040519081016040528093929190818152602001838360200280828437600081840152601f19601f8201169050808301925050505050505030615cdd565b60007f000000000000000000000000000000000000000000000000000000000000000073ffffffffffffffffffffffffffffffffffffffff166370a08231306040518263ffffffff1660e01b8152600401808273ffffffffffffffffffffffffffffffffffffffff1673ffffffffffffffffffffffffffffffffffffffff16815260200191505060206040518083038186803b158015612dcc57600080fd5b505afa158015612de0573d6000803e3d6000fd5b505050506040513d6020811015612df657600080fd5b8101908080519060200190929190505050905086811015612e62576040517f08c379a0000000000000000000000000000000000000000000000000000000008152600401808060200182810382526029815260200180616c246029913960400191505060405180910390fd5b7f000000000000000000000000000000000000000000000000000000000000000073ffffffffffffffffffffffffffffffffffffffff16632e1a7d4d826040518263ffffffff1660e01b815260040180828152602001915050600060405180830381600087803b158015612ed557600080fd5b505af1158015612ee9573d6000803e3d6000fd5b50505050612ef78482614f9d565b5050505050505050565b60608142811015612f7a576040517f08c379a00000000000000000000000000000000000000000000000000000000081526004018080602001828103825260168152602001807f546e7473776170526f757465723a20455850495245440000000000000000000081525060200191505060405180910390fd5b7f000000000000000000000000000000000000000000000000000000000000000073ffffffffffffffffffffffffffffffffffffffff1686866000818110612fbe57fe5b9050602002013573ffffffffffffffffffffffffffffffffffffffff1673ffffffffffffffffffffffffffffffffffffffff1614613064576040517f08c379a000000000000000000000000000000000000000000000000000000000815260040180806020018281038252601b8152602001807f546e7473776170526f757465723a20494e56414c49445f50415448000000000081525060200191505060405180910390fd5b6130d07f000000000000000000000000000000000000000000000000000000000000000034888880806020026020016040519081016040528093929190818152602001838360200280828437600081840152601f19601f8201169050808301925050505050505061522c565b915086826001845103815181106130e357fe5b60200260200101511015613142576040517f08c379a0000000000000000000000000000000000000000000000000000000008152600401808060200182810382526029815260200180616c246029913960400191505060405180910390fd5b7f000000000000000000000000000000000000000000000000000000000000000073ffffffffffffffffffffffffffffffffffffffff1663d0e30db08360008151811061318b57fe5b60200260200101516040518263ffffffff1660e01b81526004016000604051808303818588803b1580156131be57600080fd5b505af11580156131d2573d6000803e3d6000fd5b50505050507f000000000000000000000000000000000000000000000000000000000000000073ffffffffffffffffffffffffffffffffffffffff1663a9059cbb6132907f00000000000000000000000000000000000000000000000000000000000000008989600081811061324457fe5b9050602002013573ffffffffffffffffffffffffffffffffffffffff168a8a600181811061326e57fe5b9050602002013573ffffffffffffffffffffffffffffffffffffffff166153a4565b8460008151811061329d57fe5b60200260200101516040518363ffffffff1660e01b8152600401808373ffffffffffffffffffffffffffffffffffffffff1673ffffffffffffffffffffffffffffffffffffffff16815260200182815260200192505050602060405180830381600087803b15801561330e57600080fd5b505af1158015613322573d6000803e3d6000fd5b505050506040513d602081101561333857600080fd5b810190808051906020019092919050505061334f57fe5b61339b82878780806020026020016040519081016040528093929190818152602001838360200280828437600081840152601f19601f8201169050808301925050505050505086615710565b5095945050505050565b60006133b28484846161d7565b90509392505050565b60608142811015613434576040517f08c379a00000000000000000000000000000000000000000000000000000000081526004018080602001828103825260168152602001807f546e7473776170526f757465723a20455850495245440000000000000000000081525060200191505060405180910390fd5b6134a07f000000000000000000000000000000000000000000000000000000000000000089888880806020026020016040519081016040528093929190818152602001838360200280828437600081840152601f19601f82011690508083019250505050505050615b5d565b915086826000815181106134b057fe5b6020026020010151111561350f576040517f08c379a0000000000000000000000000000000000000000000000000000000008152600401808060200182810382526025815260200180616bd66025913960400191505060405180910390fd5b6135d48686600081811061351f57fe5b9050602002013573ffffffffffffffffffffffffffffffffffffffff16336135ba7f00000000000000000000000000000000000000000000000000000000000000008a8a600081811061356e57fe5b9050602002013573ffffffffffffffffffffffffffffffffffffffff168b8b600181811061359857fe5b9050602002013573ffffffffffffffffffffffffffffffffffffffff166153a4565b856000815181106135c757fe5b60200260200101516154ff565b61362082878780806020026020016040519081016040528093929190818152602001838360200280828437600081840152601f19601f8201169050808301925050505050505086615710565b509695505050505050565b7f000000000000000000000000000000000000000000000000000000000000000081565b600061365c848484616314565b90509392505050565b600081428110156136de576040517f08c379a00000000000000000000000000000000000000000000000000000000081526004018080602001828103825260168152602001807f546e7473776170526f757465723a20455850495245440000000000000000000081525060200191505060405180910390fd5b61370d887f00000000000000000000000000000000000000000000000000000000000000008989893089613e4f565b9050809250506137d588858a73ffffffffffffffffffffffffffffffffffffffff166370a08231306040518263ffffffff1660e01b8152600401808273ffffffffffffffffffffffffffffffffffffffff1673ffffffffffffffffffffffffffffffffffffffff16815260200191505060206040518083038186803b15801561379557600080fd5b505afa1580156137a9573d6000803e3d6000fd5b505050506040513d60208110156137bf57600080fd5b8101908080519060200190929190505050614da4565b7f000000000000000000000000000000000000000000000000000000000000000073ffffffffffffffffffffffffffffffffffffffff16632e1a7d4d836040518263ffffffff1660e01b815260040180828152602001915050600060405180830381600087803b15801561384857600080fd5b505af115801561385c573d6000803e3d6000fd5b5050505061386a8483614f9d565b509695505050505050565b80428110156138ec576040517f08c379a00000000000000000000000000000000000000000000000000000000081526004018080602001828103825260168152602001807f546e7473776170526f757465723a20455850495245440000000000000000000081525060200191505060405180910390fd5b7f000000000000000000000000000000000000000000000000000000000000000073ffffffffffffffffffffffffffffffffffffffff168585600081811061393057fe5b9050602002013573ffffffffffffffffffffffffffffffffffffffff1673ffffffffffffffffffffffffffffffffffffffff16146139d6576040517f08c379a000000000000000000000000000000000000000000000000000000000815260040180806020018281038252601b8152602001807f546e7473776170526f757465723a20494e56414c49445f50415448000000000081525060200191505060405180910390fd5b60003490507f000000000000000000000000000000000000000000000000000000000000000073ffffffffffffffffffffffffffffffffffffffff1663d0e30db0826040518263ffffffff1660e01b81526004016000604051808303818588803b158015613a4357600080fd5b505af1158015613a57573d6000803e3d6000fd5b50505050507f000000000000000000000000000000000000000000000000000000000000000073ffffffffffffffffffffffffffffffffffffffff1663a9059cbb613b157f000000000000000000000000000000000000000000000000000000000000000089896000818110613ac957fe5b9050602002013573ffffffffffffffffffffffffffffffffffffffff168a8a6001818110613af357fe5b9050602002013573ffffffffffffffffffffffffffffffffffffffff166153a4565b836040518363ffffffff1660e01b8152600401808373ffffffffffffffffffffffffffffffffffffffff1673ffffffffffffffffffffffffffffffffffffffff16815260200182815260200192505050602060405180830381600087803b158015613b7f57600080fd5b505af1158015613b93573d6000803e3d6000fd5b505050506040513d6020811015613ba957600080fd5b8101908080519060200190929190505050613bc057fe5b6000868660018989905003818110613bd457fe5b9050602002013573ffffffffffffffffffffffffffffffffffffffff1673ffffffffffffffffffffffffffffffffffffffff166370a08231866040518263ffffffff1660e01b8152600401808273ffffffffffffffffffffffffffffffffffffffff1673ffffffffffffffffffffffffffffffffffffffff16815260200191505060206040518083038186803b158015613c6d57600080fd5b505afa158015613c81573d6000803e3d6000fd5b505050506040513d6020811015613c9757600080fd5b81019080805190602001909291905050509050613cf5878780806020026020016040519081016040528093929190818152602001838360200280828437600081840152601f19601f8201169050808301925050505050505086615cdd565b87613dee82898960018c8c905003818110613d0c57fe5b9050602002013573ffffffffffffffffffffffffffffffffffffffff1673ffffffffffffffffffffffffffffffffffffffff166370a08231896040518263ffffffff1660e01b8152600401808273ffffffffffffffffffffffffffffffffffffffff1673ffffffffffffffffffffffffffffffffffffffff16815260200191505060206040518083038186803b158015613da557600080fd5b505afa158015613db9573d6000803e3d6000fd5b505050506040513d6020811015613dcf57600080fd5b810190808051906020019092919050505061615490919063ffffffff16565b1015613e45576040517f08c379a0000000000000000000000000000000000000000000000000000000008152600401808060200182810382526029815260200180616c246029913960400191505060405180910390fd5b5050505050505050565b6000808242811015613ec9576040517f08c379a00000000000000000000000000000000000000000000000000000000081526004018080602001828103825260168152602001807f546e7473776170526f757465723a20455850495245440000000000000000000081525060200191505060405180910390fd5b6000613ef67f00000000000000000000000000000000000000000000000000000000000000008c8c6153a4565b90508073ffffffffffffffffffffffffffffffffffffffff166323b872dd33838c6040518463ffffffff1660e01b8152600401808473ffffffffffffffffffffffffffffffffffffffff1673ffffffffffffffffffffffffffffffffffffffff1681526020018373ffffffffffffffffffffffffffffffffffffffff1673ffffffffffffffffffffffffffffffffffffffff1681526020018281526020019350505050602060405180830381600087803b158015613fb357600080fd5b505af1158015613fc7573d6000803e3d6000fd5b505050506040513d6020811015613fdd57600080fd5b8101908080519060200190929190505050506000808273ffffffffffffffffffffffffffffffffffffffff166389afcb44896040518263ffffffff1660e01b8152600401808273ffffffffffffffffffffffffffffffffffffffff1673ffffffffffffffffffffffffffffffffffffffff1681526020019150506040805180830381600087803b15801561407057600080fd5b505af1158015614084573d6000803e3d6000fd5b505050506040513d604081101561409a57600080fd5b8101908080519060200190929190805190602001909291905050509150915060006140c58e8e6163f8565b5090508073ffffffffffffffffffffffffffffffffffffffff168e73ffffffffffffffffffffffffffffffffffffffff1614614102578183614105565b82825b80975081985050508a871015614166576040517f08c379a0000000000000000000000000000000000000000000000000000000008152600401808060200182810382526024815260200180616bb26024913960400191505060405180910390fd5b898610156141bf576040517f08c379a0000000000000000000000000000000000000000000000000000000008152600401808060200182810382526024815260200180616cdd6024913960400191505060405180910390fd5b505050505097509795505050505050565b7f000000000000000000000000000000000000000000000000000000000000000081565b60606142217f0000000000000000000000000000000000000000000000000000000000000000848461522c565b905092915050565b60008060006142797f00000000000000000000000000000000000000000000000000000000000000008e7f00000000000000000000000000000000000000000000000000000000000000006153a4565b9050600087614288578c6142aa565b7fffffffffffffffffffffffffffffffffffffffffffffffffffffffffffffffff5b90508173ffffffffffffffffffffffffffffffffffffffff1663d505accf3330848d8c8c8c6040518863ffffffff1660e01b8152600401808873ffffffffffffffffffffffffffffffffffffffff1673ffffffffffffffffffffffffffffffffffffffff1681526020018773ffffffffffffffffffffffffffffffffffffffff1673ffffffffffffffffffffffffffffffffffffffff1681526020018681526020018581526020018460ff1660ff168152602001838152602001828152602001975050505050505050600060405180830381600087803b15801561438d57600080fd5b505af11580156143a1573d6000803e3d6000fd5b505050506143b38e8e8e8e8e8e611656565b809450819550505050509a509a98505050505050505050565b60008060008342811015614448576040517f08c379a00000000000000000000000000000000000000000000000000000000081526004018080602001828103825260168152602001807f546e7473776170526f757465723a20455850495245440000000000000000000081525060200191505060405180910390fd5b6144568c8c8c8c8c8c61656f565b8094508195505050600061448b7f00000000000000000000000000000000000000000000000000000000000000008e8e6153a4565b90506144998d3383886154ff565b6144a58c3383876154ff565b8073ffffffffffffffffffffffffffffffffffffffff16636a627842886040518263ffffffff1660e01b8152600401808273ffffffffffffffffffffffffffffffffffffffff1673ffffffffffffffffffffffffffffffffffffffff168152602001915050602060405180830381600087803b15801561452457600080fd5b505af1158015614538573d6000803e3d6000fd5b505050506040513d602081101561454e57600080fd5b810190808051906020019092919050505092505050985098509895505050505050565b600080600083428110156145ed576040517f08c379a00000000000000000000000000000000000000000000000000000000081526004018080602001828103825260168152602001807f546e7473776170526f757465723a20455850495245440000000000000000000081525060200191505060405180910390fd5b61461b8a7f00000000000000000000000000000000000000000000000000000000000000008b348c8c61656f565b809450819550505060006146707f00000000000000000000000000000000000000000000000000000000000000008c7f00000000000000000000000000000000000000000000000000000000000000006153a4565b905061467e8b3383886154ff565b7f000000000000000000000000000000000000000000000000000000000000000073ffffffffffffffffffffffffffffffffffffffff1663d0e30db0856040518263ffffffff1660e01b81526004016000604051808303818588803b1580156146e657600080fd5b505af11580156146fa573d6000803e3d6000fd5b50505050507f000000000000000000000000000000000000000000000000000000000000000073ffffffffffffffffffffffffffffffffffffffff1663a9059cbb82866040518363ffffffff1660e01b8152600401808373ffffffffffffffffffffffffffffffffffffffff1673ffffffffffffffffffffffffffffffffffffffff16815260200182815260200192505050602060405180830381600087803b1580156147a657600080fd5b505af11580156147ba573d6000803e3d6000fd5b505050506040513d60208110156147d057600080fd5b81019080805190602001909291905050506147e757fe5b8073ffffffffffffffffffffffffffffffffffffffff16636a627842886040518263ffffffff1660e01b8152600401808273ffffffffffffffffffffffffffffffffffffffff1673ffffffffffffffffffffffffffffffffffffffff168152602001915050602060405180830381600087803b15801561486657600080fd5b505af115801561487a573d6000803e3d6000fd5b505050506040513d602081101561489057600080fd5b81019080805190602001909291905050509250833411156148b8576148b733853403614f9d565b5b505096509650969350505050565b6060814281101561493f576040517f08c379a00000000000000000000000000000000000000000000000000000000081526004018080602001828103825260168152602001807f546e7473776170526f757465723a20455850495245440000000000000000000081525060200191505060405180910390fd5b7f000000000000000000000000000000000000000000000000000000000000000073ffffffffffffffffffffffffffffffffffffffff168686600081811061498357fe5b9050602002013573ffffffffffffffffffffffffffffffffffffffff1673ffffffffffffffffffffffffffffffffffffffff1614614a29576040517f08c379a000000000000000000000000000000000000000000000000000000000815260040180806020018281038252601b8152602001807f546e7473776170526f757465723a20494e56414c49445f50415448000000000081525060200191505060405180910390fd5b614a957f000000000000000000000000000000000000000000000000000000000000000088888880806020026020016040519081016040528093929190818152602001838360200280828437600081840152601f19601f82011690508083019250505050505050615b5d565b91503482600081518110614aa557fe5b60200260200101511115614b04576040517f08c379a0000000000000000000000000000000000000000000000000000000008152600401808060200182810382526025815260200180616bd66025913960400191505060405180910390fd5b7f000000000000000000000000000000000000000000000000000000000000000073ffffffffffffffffffffffffffffffffffffffff1663d0e30db083600081518110614b4d57fe5b60200260200101516040518263ffffffff1660e01b81526004016000604051808303818588803b158015614b8057600080fd5b505af1158015614b94573d6000803e3d6000fd5b50505050507f000000000000000000000000000000000000000000000000000000000000000073ffffffffffffffffffffffffffffffffffffffff1663a9059cbb614c527f000000000000000000000000000000000000000000000000000000000000000089896000818110614c0657fe5b9050602002013573ffffffffffffffffffffffffffffffffffffffff168a8a6001818110614c3057fe5b9050602002013573ffffffffffffffffffffffffffffffffffffffff166153a4565b84600081518110614c5f57fe5b60200260200101516040518363ffffffff1660e01b8152600401808373ffffffffffffffffffffffffffffffffffffffff1673ffffffffffffffffffffffffffffffffffffffff16815260200182815260200192505050602060405180830381600087803b158015614cd057600080fd5b505af1158015614ce4573d6000803e3d6000fd5b505050506040513d6020811015614cfa57600080fd5b8101908080519060200190929190505050614d1157fe5b614d5d82878780806020026020016040519081016040528093929190818152602001838360200280828437600081840152601f19601f8201169050808301925050505050505086615710565b81600081518110614d6a57fe5b6020026020010151341115614d9a57614d993383600081518110614d8a57fe5b60200260200101513403614f9d565b5b5095945050505050565b600060608473ffffffffffffffffffffffffffffffffffffffff1663a9059cbb8585604051602401808373ffffffffffffffffffffffffffffffffffffffff1673ffffffffffffffffffffffffffffffffffffffff168152602001828152602001925050506040516020818303038152906040529060e01b6020820180517bffffffffffffffffffffffffffffffffffffffffffffffffffffffff83818316178352505050506040518082805190602001908083835b60208310614e7d5780518252602082019150602081019050602083039250614e5a565b6001836020036101000a0380198251168184511680821785525050505050509050019150506000604051808303816000865af19150503d8060008114614edf576040519150601f19603f3d011682016040523d82523d6000602084013e614ee4565b606091505b5091509150818015614f245750600081511480614f235750808060200190516020811015614f1157600080fd5b81019080805190602001909291905050505b5b614f96576040517f08c379a000000000000000000000000000000000000000000000000000000000815260040180806020018281038252601f8152602001807f5472616e7366657248656c7065723a205452414e534645525f4641494c45440081525060200191505060405180910390fd5b5050505050565b60008273ffffffffffffffffffffffffffffffffffffffff1682600067ffffffffffffffff81118015614fcf57600080fd5b506040519080825280601f01601f1916602001820160405280156150025781602001600182028036833780820191505090505b506040518082805190602001908083835b602083106150365780518252602082019150602081019050602083039250615013565b6001836020036101000a03801982511681845116808217855250505050505090500191505060006040518083038185875af1925050503d8060008114615098576040519150601f19603f3d011682016040523d82523d6000602084013e61509d565b606091505b50509050806150f7576040517f08c379a0000000000000000000000000000000000000000000000000000000008152600401808060200182810382526023815260200180616c966023913960400191505060405180910390fd5b505050565b6000808411615156576040517f08c379a0000000000000000000000000000000000000000000000000000000008152600401808060200182810382526029815260200180616bfb6029913960400191505060405180910390fd5b6000831180156151665750600082115b6151bb576040517f08c379a0000000000000000000000000000000000000000000000000000000008152600401808060200182810382526026815260200180616c4d6026913960400191505060405180910390fd5b60006151d26103e68661692390919063ffffffff16565b905060006151e9848361692390919063ffffffff16565b90506000615214836152066103e88961692390919063ffffffff16565b6169b890919063ffffffff16565b905080828161521f57fe5b0493505050509392505050565b60606002825110156152a6576040517f08c379a000000000000000000000000000000000000000000000000000000000815260040180806020018281038252601c8152602001807f546e74737761704c6962726172793a20494e56414c49445f504154480000000081525060200191505060405180910390fd5b815167ffffffffffffffff811180156152be57600080fd5b506040519080825280602002602001820160405280156152ed5781602001602082028036833780820191505090505b50905082816000815181106152fe57fe5b60200260200101818152505060005b600183510381101561539c576000806153508786858151811061532c57fe5b602002602001015187600187018151811061534357fe5b6020026020010151616a3b565b9150915061537284848151811061536357fe5b602002602001015183836150fc565b84600185018151811061538157fe5b6020026020010181815250505050808060010191505061530d565b509392505050565b60008060006153b385856163f8565b91509150858282604051602001808373ffffffffffffffffffffffffffffffffffffffff1673ffffffffffffffffffffffffffffffffffffffff1660601b81526014018273ffffffffffffffffffffffffffffffffffffffff1673ffffffffffffffffffffffffffffffffffffffff1660601b8152601401925050506040516020818303038152906040528051906020012060405160200180807fff000000000000000000000000000000000000000000000000000000000000008152506001018373ffffffffffffffffffffffffffffffffffffffff1673ffffffffffffffffffffffffffffffffffffffff1660601b8152601401828152602001807f49b6d5c5fb63504ee2a00dca153784821dfaae6afcaa0de433da0ac25184dbec815250602001925050506040516020818303038152906040528051906020012060001c925050509392505050565b600060608573ffffffffffffffffffffffffffffffffffffffff166323b872dd868686604051602401808473ffffffffffffffffffffffffffffffffffffffff1673ffffffffffffffffffffffffffffffffffffffff1681526020018373ffffffffffffffffffffffffffffffffffffffff1673ffffffffffffffffffffffffffffffffffffffff16815260200182815260200193505050506040516020818303038152906040529060e01b6020820180517bffffffffffffffffffffffffffffffffffffffffffffffffffffffff83818316178352505050506040518082805190602001908083835b6020831061560c57805182526020820191506020810190506020830392506155e9565b6001836020036101000a0380198251168184511680821785525050505050509050019150506000604051808303816000865af19150503d806000811461566e576040519150601f19603f3d011682016040523d82523d6000602084013e615673565b606091505b50915091508180156156b357506000815114806156b257508080602001905160208110156156a057600080fd5b81019080805190602001909291905050505b5b615708576040517f08c379a0000000000000000000000000000000000000000000000000000000008152600401808060200182810382526024815260200180616cb96024913960400191505060405180910390fd5b505050505050565b60005b6001835103811015615b575760008084838151811061572e57fe5b602002602001015185600185018151811061574557fe5b602002602001015191509150600061575d83836163f8565b509050600087600186018151811061577157fe5b60200260200101519050600073ffffffffffffffffffffffffffffffffffffffff166000809054906101000a900473ffffffffffffffffffffffffffffffffffffffff1673ffffffffffffffffffffffffffffffffffffffff161461591d576000809054906101000a900473ffffffffffffffffffffffffffffffffffffffff1673ffffffffffffffffffffffffffffffffffffffff1663a9678a18338686856040518563ffffffff1660e01b8152600401808573ffffffffffffffffffffffffffffffffffffffff1673ffffffffffffffffffffffffffffffffffffffff1681526020018473ffffffffffffffffffffffffffffffffffffffff1673ffffffffffffffffffffffffffffffffffffffff1681526020018373ffffffffffffffffffffffffffffffffffffffff1673ffffffffffffffffffffffffffffffffffffffff168152602001828152602001945050505050602060405180830381600087803b1580156158e057600080fd5b505af11580156158f4573d6000803e3d6000fd5b505050506040513d602081101561590a57600080fd5b8101908080519060200190929190505050505b6000808373ffffffffffffffffffffffffffffffffffffffff168673ffffffffffffffffffffffffffffffffffffffff161461595b5782600061595f565b6000835b91509150600060028a5103881061597657886159b8565b6159b77f0000000000000000000000000000000000000000000000000000000000000000878c60028c01815181106159aa57fe5b60200260200101516153a4565b5b90506159e57f000000000000000000000000000000000000000000000000000000000000000088886153a4565b73ffffffffffffffffffffffffffffffffffffffff1663022c0d9f848484600067ffffffffffffffff81118015615a1b57600080fd5b506040519080825280601f01601f191660200182016040528015615a4e5781602001600182028036833780820191505090505b506040518563ffffffff1660e01b8152600401808581526020018481526020018373ffffffffffffffffffffffffffffffffffffffff1673ffffffffffffffffffffffffffffffffffffffff16815260200180602001828103825283818151815260200191508051906020019080838360005b83811015615adc578082015181840152602081019050615ac1565b50505050905090810190601f168015615b095780820380516001836020036101000a031916815260200191505b5095505050505050600060405180830381600087803b158015615b2b57600080fd5b505af1158015615b3f573d6000803e3d6000fd5b50505050505050505050508080600101915050615713565b50505050565b6060600282511015615bd7576040517f08c379a000000000000000000000000000000000000000000000000000000000815260040180806020018281038252601c8152602001807f546e74737761704c6962726172793a20494e56414c49445f504154480000000081525060200191505060405180910390fd5b815167ffffffffffffffff81118015615bef57600080fd5b50604051908082528060200260200182016040528015615c1e5781602001602082028036833780820191505090505b5090508281600183510381518110615c3257fe5b6020026020010181815250506000600183510390505b6000811115615cd557600080615c8887866001860381518110615c6757fe5b6020026020010151878681518110615c7b57fe5b6020026020010151616a3b565b91509150615caa848481518110615c9b57fe5b602002602001015183836161d7565b846001850381518110615cb957fe5b6020026020010181815250505050808060019003915050615c48565b509392505050565b60005b600183510381101561614f57600080848381518110615cfb57fe5b6020026020010151856001850181518110615d1257fe5b6020026020010151915091506000615d2a83836163f8565b5090506000615d5a7f000000000000000000000000000000000000000000000000000000000000000085856153a4565b90506000806000808473ffffffffffffffffffffffffffffffffffffffff16630902f1ac6040518163ffffffff1660e01b815260040160606040518083038186803b158015615da857600080fd5b505afa158015615dbc573d6000803e3d6000fd5b505050506040513d6060811015615dd257600080fd5b81019080805190602001909291908051906020019092919080519060200190929190505050506dffffffffffffffffffffffffffff1691506dffffffffffffffffffffffffffff1691506000808773ffffffffffffffffffffffffffffffffffffffff168a73ffffffffffffffffffffffffffffffffffffffff1614615e59578284615e5c565b83835b91509150615f2a828b73ffffffffffffffffffffffffffffffffffffffff166370a082318a6040518263ffffffff1660e01b8152600401808273ffffffffffffffffffffffffffffffffffffffff1673ffffffffffffffffffffffffffffffffffffffff16815260200191505060206040518083038186803b158015615ee157600080fd5b505afa158015615ef5573d6000803e3d6000fd5b505050506040513d6020811015615f0b57600080fd5b810190808051906020019092919050505061615490919063ffffffff16565b9550615f378683836150fc565b9450505050506000808573ffffffffffffffffffffffffffffffffffffffff168873ffffffffffffffffffffffffffffffffffffffff1614615f7b57826000615f7f565b6000835b91509150600060028c51038a10615f96578a615fd8565b615fd77f0000000000000000000000000000000000000000000000000000000000000000898e60028e0181518110615fca57fe5b60200260200101516153a4565b5b90508573ffffffffffffffffffffffffffffffffffffffff1663022c0d9f848484600067ffffffffffffffff8111801561601157600080fd5b506040519080825280601f01601f1916602001820160405280156160445781602001600182028036833780820191505090505b506040518563ffffffff1660e01b8152600401808581526020018481526020018373ffffffffffffffffffffffffffffffffffffffff1673ffffffffffffffffffffffffffffffffffffffff16815260200180602001828103825283818151815260200191508051906020019080838360005b838110156160d25780820151818401526020810190506160b7565b50505050905090810190601f1680156160ff5780820380516001836020036101000a031916815260200191505b5095505050505050600060405180830381600087803b15801561612157600080fd5b505af1158015616135573d6000803e3d6000fd5b505050505050505050505050508080600101915050615ce0565b505050565b60008282840391508111156161d1576040517f08c379a00000000000000000000000000000000000000000000000000000000081526004018080602001828103825260158152602001807f64732d6d6174682d7375622d756e646572666c6f77000000000000000000000081525060200191505060405180910390fd5b92915050565b6000808411616231576040517f08c379a000000000000000000000000000000000000000000000000000000000815260040180806020018281038252602a815260200180616b65602a913960400191505060405180910390fd5b6000831180156162415750600082115b616296576040517f08c379a0000000000000000000000000000000000000000000000000000000008152600401808060200182810382526026815260200180616c4d6026913960400191505060405180910390fd5b60006162bf6103e86162b1878761692390919063ffffffff16565b61692390919063ffffffff16565b905060006162ea6103e66162dc888761615490919063ffffffff16565b61692390919063ffffffff16565b905061630960018284816162fa57fe5b046169b890919063ffffffff16565b925050509392505050565b600080841161636e576040517f08c379a0000000000000000000000000000000000000000000000000000000008152600401808060200182810382526023815260200180616c736023913960400191505060405180910390fd5b60008311801561637e5750600082115b6163d3576040517f08c379a0000000000000000000000000000000000000000000000000000000008152600401808060200182810382526026815260200180616c4d6026913960400191505060405180910390fd5b826163e7838661692390919063ffffffff16565b816163ee57fe5b0490509392505050565b6000808273ffffffffffffffffffffffffffffffffffffffff168473ffffffffffffffffffffffffffffffffffffffff161415616480576040517f08c379a0000000000000000000000000000000000000000000000000000000008152600401808060200182810382526023815260200180616b8f6023913960400191505060405180910390fd5b8273ffffffffffffffffffffffffffffffffffffffff168473ffffffffffffffffffffffffffffffffffffffff16106164ba5782846164bd565b83835b8092508193505050600073ffffffffffffffffffffffffffffffffffffffff168273ffffffffffffffffffffffffffffffffffffffff161415616568576040517f08c379a000000000000000000000000000000000000000000000000000000000815260040180806020018281038252601c8152602001807f546e74737761704c6962726172793a205a45524f5f414444524553530000000081525060200191505060405180910390fd5b9250929050565b600080600073ffffffffffffffffffffffffffffffffffffffff167f000000000000000000000000000000000000000000000000000000000000000073ffffffffffffffffffffffffffffffffffffffff1663e6a439058a8a6040518363ffffffff1660e01b8152600401808373ffffffffffffffffffffffffffffffffffffffff1673ffffffffffffffffffffffffffffffffffffffff1681526020018273ffffffffffffffffffffffffffffffffffffffff1673ffffffffffffffffffffffffffffffffffffffff1681526020019250505060206040518083038186803b15801561665b57600080fd5b505afa15801561666f573d6000803e3d6000fd5b505050506040513d602081101561668557600080fd5b810190808051906020019092919050505073ffffffffffffffffffffffffffffffffffffffff1614156167c2577f000000000000000000000000000000000000000000000000000000000000000073ffffffffffffffffffffffffffffffffffffffff1663c9c6539689896040518363ffffffff1660e01b8152600401808373ffffffffffffffffffffffffffffffffffffffff1673ffffffffffffffffffffffffffffffffffffffff1681526020018273ffffffffffffffffffffffffffffffffffffffff1673ffffffffffffffffffffffffffffffffffffffff16815260200192505050602060405180830381600087803b15801561678557600080fd5b505af1158015616799573d6000803e3d6000fd5b505050506040513d60208110156167af57600080fd5b8101908080519060200190929190505050505b6000806167f07f00000000000000000000000000000000000000000000000000000000000000008b8b616a3b565b915091506000821480156168045750600081145b156168185787878094508195505050616916565b6000616825898484616314565b90508781116168965785811015616887576040517f08c379a0000000000000000000000000000000000000000000000000000000008152600401808060200182810382526024815260200180616cdd6024913960400191505060405180910390fd5b88818095508196505050616914565b60006168a3898486616314565b9050898111156168af57fe5b87811015616908576040517f08c379a0000000000000000000000000000000000000000000000000000000008152600401808060200182810382526024815260200180616bb26024913960400191505060405180910390fd5b80898096508197505050505b505b5050965096945050505050565b600080821480616940575082828385029250828161693d57fe5b04145b6169b2576040517f08c379a00000000000000000000000000000000000000000000000000000000081526004018080602001828103825260148152602001807f64732d6d6174682d6d756c2d6f766572666c6f7700000000000000000000000081525060200191505060405180910390fd5b92915050565b6000828284019150811015616a35576040517f08c379a00000000000000000000000000000000000000000000000000000000081526004018080602001828103825260148152602001807f64732d6d6174682d6164642d6f766572666c6f7700000000000000000000000081525060200191505060405180910390fd5b92915050565b6000806000616a4a85856163f8565b509050600080616a5b8888886153a4565b73ffffffffffffffffffffffffffffffffffffffff16630902f1ac6040518163ffffffff1660e01b815260040160606040518083038186803b158015616aa057600080fd5b505afa158015616ab4573d6000803e3d6000fd5b505050506040513d6060811015616aca57600080fd5b81019080805190602001909291908051906020019092919080519060200190929190505050506dffffffffffffffffffffffffffff1691506dffffffffffffffffffffffffffff1691508273ffffffffffffffffffffffffffffffffffffffff168773ffffffffffffffffffffffffffffffffffffffff1614616b4e578082616b51565b81815b809550819650505050505093509391505056fe546e74737761704c6962726172793a20494e53554646494349454e545f4f55545055545f414d4f554e54546e74737761704c6962726172793a204944454e544943414c5f414444524553534553546e7473776170526f757465723a20494e53554646494349454e545f415f414d4f554e54546e7473776170526f757465723a204558434553534956455f494e5055545f414d4f554e54546e74737761704c6962726172793a20494e53554646494349454e545f494e5055545f414d4f554e54546e7473776170526f757465723a20494e53554646494349454e545f4f55545055545f414d4f554e54546e74737761704c6962726172793a20494e53554646494349454e545f4c4951554944495459546e74737761704c6962726172793a20494e53554646494349454e545f414d4f554e545472616e7366657248656c7065723a204554485f5452414e534645525f4641494c45445472616e7366657248656c7065723a205452414e534645525f46524f4d5f4641494c4544546e7473776170526f757465723a20494e53554646494349454e545f425f414d4f554e54a264697066735822122024f35cd6273bc1ff36af754d3e2531def6cd4e83e641ce80e8dbcf3086102f1564736f6c63430006060033",
  "linkReferences": {},
  "deployedLinkReferences": {}
}